:0E00000008E00EBF0FEF0DBF0E940900FFCFFA
:100010000895AF92BF92CF92DF92EF92FF920F932B
:100020001F93259A00E010E084EF91E06C0184E6D4
:1000300090E05C010BC075012D9AB701C8010E94C8
:10004000C4002D98B701C8010E94C400B801C801BE
:100050000E94560021E0613032E07307800791076B
:100060000CF0212D2170203031F37601E5CF000016
:10007000DB0160E070E081E021153105460757079C
:1000800009F0812D8170FD01E45FFD4F9081A05149
:10009000BE4F2C91A22FBB272C91803019F4292B15
:1000A0002C930895909529232C930895677060648C
:1000B00060937C0080917A00876C80937A008091B5
:1000C0007A0080748030D9F720917800809179008F
:1000D000482F552780E090E0982F852F542F412DF1
:1000E000622F7727642B752B089540E050E0CA01FA
:1000F000FA0131E086309105E407F50709F0312D6A
:100100003170303059F4DC01A65EBD4F3C9136179A
:1001100031F08F5F9F4FEF4FFF4FEBCF0895DC0122
:10012000A45DBD4F3C91880F991FAC01405E5D4FAF
:10013000FA01A081B1814C91432B4C938E5C9D4F71
:10014000FC01A081B1812C930895DB0160E070E097
:1001500081E0211531054607570709F0812D81708F
:10016000FD01E45FFD4F9081A250BE4F2C91A22F64
:10017000BB272C91803019F4292B2C93089590954E
:1001800029232C93089500001F9320E030E041E0E4
:10019000611571058207930709F0412D41704030C8
:1001A00009F024C040EA5FE003C0E170E030F1F004
:1001B000FA01D90103C01170103061F0E150F04034
:1001C000A040B04011E0E115F105A207B30799F78F
:1001D000112DF1CF6150704080409040E1E06115F9
:1001E00071058207930709F7E12DDFCF1F9108956D
:1001F0002A2A2A2A2A2A2A2A2424242424242B2B81
:100200002B2B2B2B2B2B25252525252501020408FF
:1002100010204080010204081020030506090A0B83
:10022000B0004400440080008000B00020208080A6
:0E0230002080B4004800470088008A00B30018
:0400000300000010E9
:00000001FF
