:100000000C94350018950000189500001895000014
:10001000189500001895000018950000189500002C
:10002000189500001895000018950000189500001C
:10003000189500001895000018950000189500000C
:100040000C943400189500001895000018950000D5
:1000500018950000189500001895000018950000EC
:100060001895000018950000189508E00EBF0FEFD6
:080070000DBF0E943C00FFCF10
:10007800CF92DF92EF92FF920F931F93259A84EF0E
:1000880091E06C0100E010E02D9A7601B701C801FB
:100098000E9454002D98B701C8010E945400F4CF63
:1000A8001F9320E030E041E0611571058207930756
:1000B80009F0412D4170403009F024C040EA5FE06A
:1000C80003C0E170E030F1F0FA01D90103C011700A
:1000D800103061F0E150F040A040B04011E0E1156F
:1000E800F105A207B30799F7112DF1CF61507040C0
:1000F80080409040E1E0611571058207930709F798
:08010800E12DDFCF1F910895E6
:040000030000007881
:00000001FF
