:100000000C94350018950000189500001895000014
:10001000189500001895000018950000189500002C
:10002000189500001895000018950000189500001C
:10003000189500001895000018950000189500000C
:100040000C943400189500001895000018950000D5
:1000500018950000189500001895000018950000EC
:100060001895000018950000189508E00EBF0FEFD6
:080070000DBF0E943C00FFCF10
:100078000F931F931092C50087E68093C40088E110
:100088008093C10086E08093C20000E010E0909168
:10009800C000991F9927991F292F332781E0191626
:1000A8001306000711070CF4812D8170803079F751
:1000B8008091C600682F7727C8010E946400E7CFA7
:1000C8008091C00080728030D9F36093C600089593
:040000030000007881
:00000001FF
