:100000000C94350018950000189500001895000014
:10001000189500001895000018950000189500002C
:10002000189500001895000018950000189500001C
:10003000189500001895000018950000189500000C
:100040000C943400189500001895000018950000D5
:1000500018950000189500001895000018950000EC
:100060001895000018950000189508E00EBF0FEFD6
:080070000DBF0E943C00FFCF10
:100078004F925F926F927F928F929F92AF92BF92B0
:10008800CF92DF92EF92FF920F931F93CF93DF935C
:10009800CDB7DEB78DB79EB704970FB6F8949EBF5D
:1000A8000FBE8DBF4DE050E000E010E06C01B801DC
:1000B8000E9487008DB79EB704970FB6F8949EBF2D
:1000C8000FBE8DBF4CE050E02C014801B8010E94E2
:1000D800870004EF11E07601C7010E949B003201FE
:1000E800C3010E94A700B8015401C5010E9405017F
:1000F800C7010E94A700C3010E949B00B801C50167
:100108000E940501E8CF0F931F938B01FC01138315
:1001180002835183408321E030E0A0E0B0E0BA01DF
:10012800C801AD010E94B2001F910F910895FC0112
:10013800828193816081718121E030E040E050E06C
:100148000E94E7000895FC0182819381608171819A
:1001580020E030E0A9010E94E70008951F93DB0129
:1001680060E070E091E0213031054607570709F457
:10017800912D9170FD01E257FD4F8081FD01EE58F0
:10018800FD4FE081FF27903029F49081982B9083D0
:100198001F910895982F909510811923108391E04D
:1001A800223031054607570709F4912D9170903098
:1001B80041F4A058BD4F9C91A92FBB279C91982B27
:1001C8009C931F910895DB0160E070E081E02115A8
:1001D80031054607570709F0812D8170FD01E25767
:1001E800FD4F9081A058BD4F2C91A22FBB272C9179
:1001F800803019F4292B2C930895909529232C935A
:1002080008951F9320E030E041E0611571058207F1
:10021800930709F0412D4170403009F024C040EAAD
:100228005FE003C0E170E030F1F0FA01D90103C0EA
:100238001170103061F0E150F040A040B04011E082
:10024800E115F105A207B30799F7112DF1CF615018
:10025800704080409040E1E0611571058207930786
:1002680009F7E12DDFCF1F9108952A2A2A2A2A2A81
:100278002A2A2424242424242B2B2B2B2B2B2B2BF2
:100288002525252525250102040810204080010286
:040298000408102026
:040000030000007881
:00000001FF
