:100000000C94350018950000189500001895000014
:10001000189500001895000018950000189500002C
:10002000189500001895000018950000189500001C
:10003000189500001895000018950000189500000C
:100040000C943400189500001895000018950000D5
:1000500018950000189500001895000018950000EC
:100060001895000018950000189508E00EBF0FEFD6
:080070000DBF0E944F00FFCFFD
:100078000F931F9329E030E000E010E0A8010E94F0
:1000880083012AE030E0A8010E94BD01B901CA013C
:100098001F910F9108956FEF73E080E090E00E9448
:1000A8003C0008952F923F924F925F926F927F92F9
:1000B8008F929F92AF92BF92CF92DF92EF92FF9270
:1000C8000F931F93CF93DF93CDB7DEB724970FB667
:1000D800F894DEBF0FBECDBF9A8389832B0160E001
:1000E80070E00FE110E081EEFB016B017C836B8314
:1000F8005B014B010AC0917001501040E040F04094
:1001080083959030430109F46FC0AA0CBB1C881C6E
:10011800991C0030B20189F0982FB201E980FA8069
:1001280006C0F694E79477956795A13031F09395DA
:10013800A1E09030B1F3A12DF4CF617070706A29FD
:100148007B295B01A21AB30A3401640A750A91E09B
:10015800621773078406950608F4912D9170903004
:10016800C1F09030C9F00030D1F0982FA1E0B0E094
:100178001D01A0E0B0E07D0106C0220C331CEE1C7E
:10018800FF1CA13091F09395A1E09030B1F3A12D1F
:10019800F4CF5B01903039F73401003031F7A1E03A
:1001A800B0E01D01A0E0B0E07D0191E062177307A7
:1001B8008406950661E008F4612D6170603031F0C5
:1001C800AB81BC81AE29BF29BC83AB83603011F001
:1001D800C228D3280115110560E070E0E607F7078B
:1001E80009F089CF912D87CFB6018B819C81249608
:1001F8000FB6F894DEBF0FBECDBFDF91CF911F9130
:100208000F91FF90EF90DF90CF90BF90AF909F90AD
:100218008F907F906F905F904F903F902F900895B0
:100228004F925F926F927F928F929F92AF92BF92FE
:10023800CF92DF92EF92FF920F931F934A013901F9
:100248007C016B0140E050E00FE110E021EECA01B3
:10025800BA012A015A010AC0517001501040804069
:100268009040239550305D0109F439C0660F771F1F
:10027800AA1CBB1C0030F60181F0322FF601A70141
:1002880006C056954795F795E795A13031F0339517
:10029800A1E03030B1F3A12DF4CF41E001151105F3
:1002A800D2018A079B0751E009F4512DE170F070E3
:1002B800E62BF72BBF0166197709D501A809B909FB
:1002C800E615F705A804B90408F4412D417040303B
:1002D80009F4BF01403009F0BFCFD501BDCFCD0132
:1002E8001F910F91FF90EF90DF90CF90BF90AF904C
:1002F8009F908F907F906F905F904F900895AF92EE
:10030800BF92CF92DF92EF92FF921F93E0E0F0E06E
:100318007F015F016F01D70109C01170660F771F58
:10032800881F991F10307D016F01C9F0A60FB71FF4
:10033800E81FF91F122F1170103009F4F601103060
:1003480009F4D701569547953795279511E021155A
:10035800310575014E055F0501F7112DDECFBD0191
:10036800CF011F91FF90EF90DF90CF90BF90AF909B
:1003780008952F923F924F925F926F927F928F9241
:100388009F92AF92BF92CF92DF92EF92FF920F931C
:100398001F938A0179016C015B018D2D880F440838
:1003A800542CA424B524C424D524A418B508C408FE
:1003B800D508812F880F2208322CE224F324022545
:1003C8001325E218F30802091309B501C6019701BC
:1003D800A8010E9456004B013C01242435248224A4
:1003E8009324622473248218930862087308B50161
:1003F800C6019701A8010E9414016425752584256A
:10040800952564197509840995099401A3011F911B
:100418000F91FF90EF90DF90CF90BF90AF909F909B
:100428008F907F906F905F904F903F902F9008959E
:040000030000007881
:00000001FF
