:100000000C94350018950000189500001895000014
:10001000189500001895000018950000189500002C
:10002000189500001895000018950000189500001C
:10003000189500001895000018950000189500000C
:100040000C943400189500001895000018950000D5
:1000500018950000189500001895000018950000EC
:100060001895000018950000189508E00EBF0FEFD6
:080070000DBF0E944000FFCF0C
:100080002F923F924F925F926F927F928F929F92A8
:10009000AF92BF92CF92DF92EF92FF920F931F9396
:1000A0001092C50087E68093C40088E18093C10068
:1000B00086E08093C20081E490E07C0100E010E0E3
:1000C0008DE090E05C018AE090E03C0180ED91E001
:1000D0002C0188EE93E01C01B701C8010E94BE000C
:1000E0006501B601C8010E94BE004301B401C80108
:1000F0000E94BE00C2010E94C600B601C8010E9453
:10010000BE00B401C8010E94BE00B101C8010E9436
:100110008A00E2CF1F9320E030E041E061157105D5
:100120008207930709F0412D4170403009F024C047
:1001300040EA5FE003C0E170E030F1F0FA01D9017C
:1001400003C01170103061F0E150F040A040B040A9
:1001500011E0E115F105A207B30799F7112DF1CFD1
:100160006150704080409040E1E061157105820768
:10017000930709F7E12DDFCF1F9108958091C0000B
:1001800080728030D9F36093C6000895CF92DF92D9
:10019000EF92FF920F931F93DC018C91803081F0DE
:1001A00000E010E06D01682F7727C8017D010E94F3
:1001B000BE00D6011196F701818180306D0199F75B
:1001C0001F910F91FF90EF90DF90CF900895000066
:1001D00048656C6C6F2C20457370726573736F4D3E
:1001E000616368696E652100000000000000000086
:040000030000008079
:00000001FF
