:100000000C94350018950000189500001895000014
:10001000189500001895000018950000189500002C
:10002000189500001895000018950000189500001C
:10003000189500001895000018950000189500000C
:100040000C943400189500001895000018950000D5
:1000500018950000189500001895000018950000EC
:100060001895000018950000189508E00EBF0FEFD6
:080070000DBF0E944100FFCF0B
:1000800008952F923F924F925F926F927F928F923C
:100090009F92AF92BF92CF92DF92EF92FF920F9317
:1000A0001F931092C50087E68093C40088E1809377
:1000B000C10086E08093C20081E490E07C0100E012
:1000C00010E08DE090E05C018AE090E03C0180E689
:1000D00093E02C0188EE93E01C01B701C8010E9457
:1000E00084016501B601C8010E9484014301B40185
:1000F000C8010E948401C2010E948C01B601C8019E
:100100000E948401B401C8010E948401B101C801A8
:100110000E944401E2CF00001F93DB0160E070E029
:1001200091E0213031054607570709F4912D917070
:10013000FD01E655FC4F8081FD01E058FC4FE08158
:10014000FF27903029F49081982B90831F91089578
:10015000982F909510811923108391E0223031055A
:100160004607570709F4912D9170903041F4A2573A
:10017000BC4F9C91A92FBB279C91982B9C931F91BE
:100180000895DB01FD01E655FC4F8081A456BC4F6C
:100190009C91A92FBB279C91982381E0903009F472
:1001A000812D682F772780E090E008956770606464
:1001B00060937C0080917A00876C80937A008091B4
:1001C0007A0080748030D9F720917800809179008E
:1001D000482F552780E090E0982F852F542F412DF0
:1001E000622F7727642B752B089540E050E0CA01F9
:1001F000FA0131E086309105E407F50709F0312D69
:100200003170303059F4DC01A854BC4F3C913617A2
:1002100031F08F5F9F4FEF4FFF4FEBCF0895DC0121
:10022000A653BC4F3C91880F991FAC0142545C4FC0
:10023000FA01A081B1814C91432B4C9380539C4F88
:10024000FC01A081B1812C930895DB0160E070E096
:1002500081E0211531054607570709F0812D81708E
:10026000FD01E655FC4F9081A257BC4F2C91A22F67
:10027000BB272C91803019F4292B2C93089590954D
:1002800029232C93089500001F9320E030E041E0E3
:10029000611571058207930709F0412D41704030C7
:1002A00009F024C040EA5FE003C0E170E030F1F003
:1002B000FA01D90103C01170103061F0E150F04033
:1002C000A040B04011E0E115F105A207B30799F78E
:1002D000112DF1CF6150704080409040E1E06115F8
:1002E00071058207930709F7E12DDFCF1F9108956C
:1002F0001092C50087E68093C40088E18093C10016
:1003000086E08093C20008958091C00080728030A2
:10031000D9F36093C6000895CF92DF92EF92FF92D7
:100320000F931F93DC018C91803081F000E010E08E
:100330006D01682F7727C8017D010E948401D601D5
:100340001196F701818180306D0199F71F910F910E
:10035000FF90EF90DF90CF90089500000000000024
:1003600048656C6C6F2C20457370726573736F4DAC
:10037000616368696E6521000000000000000000F4
:100380002A2A2A2A2A2A2A2A2424242424242B2BEF
:100390002B2B2B2B2B2B25252525252529292929D9
:1003A0002929292923232323232301020408102098
:1003B0004080010204081020030506090A0BB00062
:1003C0004400440080008000B00020208080208015
:0C03D000B4004800470088008A00B30019
:040000030000008079
:00000001FF
