:0E00000008E00EBF0FEF0DBF0E940900FFCFFA
:1000100008958F929F92AF92BF92CF92DF92EF920C
:10002000FF920F931F931092C50087E68093C40040
:1000300088E18093C10086E08093C20081E490E073
:100040007C0100E010E08DE090E06C018AE090E03F
:100050005C0188EE93E04C01B701C8010E94BA0030
:10006000B601C8010E94BA00B501C8010E94BA00D9
:10007000B401C8010E947A00EFCF0000DB0160E00C
:1000800070E081E0211531054607570709F0812D01
:100090008170FD01E056FE4F9081AC57BE4F2C9110
:1000A000A22FBB272C91803019F4292B2C93089573
:1000B000909529232C930895DB0160E070E081E0A6
:1000C000211531054607570709F0812D8170FD0183
:1000D000E056FE4F9081AE56BE4F2C91A22FBB270B
:1000E0002C91803019F4292B2C9308959095292375
:1000F0002C9308951F9320E030E041E061157105D5
:100100008207930709F0412D4170403009F024C067
:1001100040EA5FE003C0E170E030F1F0FA01D9019C
:1001200003C01170103061F0E150F040A040B040C9
:1001300011E0E115F105A207B30799F7112DF1CFF1
:100140006150704080409040E1E061157105820788
:10015000930709F7E12DDFCF1F9108951092C50095
:1001600087E68093C40088E18093C10086E0809395
:10017000C20008958091C00080728030D9F36093EE
:10018000C60008952A2A2A2A2A2A2A2A242424242C
:1001900024242B2B2B2B2B2B2B2B252525252525E1
:0E01A000010204081020408001020408102013
:0400000300000010E9
:00000001FF
