:0E00000008E00EBF0FEF0DBF0E940900FFCFFA
:1000100008952F923F924F925F926F927F928F92AC
:100020009F92AF92BF92CF92DF92EF92FF920F9387
:100030001F931092C50087E68093C40088E18093E7
:10004000C10086E08093C20081E490E07C0100E082
:1000500010E08DE090E05C018AE090E03C0180E0FF
:1000600092E02C0188EE93E01C01B701C8010E94C8
:10007000D0006501B601C8010E94D0004301B4015F
:10008000C8010E94D000C2010E94D800B601C80178
:100090000E94D000B401C8010E94D000B101C80183
:1000A0000E949000E2CF0000DB0160E070E081E0A0
:1000B000211531054607570709F0812D8170FD0193
:1000C000E45CFD4F9081A05EBD4F2C91A22FBB2719
:1000D0002C91803019F4292B2C9308959095292385
:1000E0002C930895DB0160E070E081E0211531057B
:1000F0004607570709F0812D8170FD01E45CFD4F33
:100100009081A25DBD4F2C91A22FBB272C918030F6
:1001100019F4292B2C930895909529232C93089555
:100120001F9320E030E041E06115710582079307DD
:1001300009F0412D4170403009F024C040EA5FE0F1
:1001400003C0E170E030F1F0FA01D90103C0117091
:10015000103061F0E150F040A040B04011E0E115F6
:10016000F105A207B30799F7112DF1CF6150704047
:1001700080409040E1E0611571058207930709F71F
:10018000E12DDFCF1F9108951092C50087E680937F
:10019000C40088E18093C10086E08093C200089586
:1001A0008091C00080728030D9F36093C6000895BA
:1001B000CF92DF92EF92FF920F931F93DC018C910D
:1001C000803081F000E010E06D01682F7727C801D2
:1001D0007D010E94D000D6011196F7018181803007
:1001E0006D0199F71F910F91FF90EF90DF90CF90E5
:1001F0000895000000000000000000000000000062
:1002000048656C6C6F2C20457370726573736F4D0D
:10021000616368696E652100000000000000000055
:100220002A2A2A2A2A2A2A2A2424242424242B2B50
:100230002B2B2B2B2B2B25252525252501020408CF
:0A0240001020408001020408102085
:0400000300000010E9
:00000001FF
