:0E00000008E00EBF0FEF0DBF0E940900FFCFFA
:1000100008952F923F924F925F926F927F928F92AC
:100020009F92AF92BF92CF92DF92EF92FF920F9387
:100030001F931092C50087E68093C40088E18093E7
:10004000C10086E08093C20081E490E07C0100E082
:1000500010E08DE090E05C018AE090E03C0180EAF5
:1000600092E02C0188EE93E01C01B701C8010E94C8
:1000700020016501B601C8010E9420014301B401BD
:10008000C8010E942001C2010E942801B601C801D6
:100090000E942001B401C8010E942001B101C801E1
:1000A0000E94E000E2CF0000DB0160E070E081E050
:1000B000211531054607570709F0812D8170FD0193
:1000C000E452FD4F9081A054BD4F2C91A22FBB272D
:1000D0002C91803019F4292B2C9308959095292385
:1000E0002C9308956770606460937C0080917A001F
:1000F000876C80937A0080917A0080748030D9F781
:100100002091780080917900482F552780E090E079
:10011000982F852F542F412D622F7727642B752B15
:10012000089540E050E0CA01FA0131E086309105BF
:10013000E407F50709F0312D3170303059F4DC0156
:10014000A651BD4F3C91361731F08F5F9F4FEF4F57
:10015000FF4FEBCF0895DC01A450BD4F3C91880FB9
:10016000991FAC0140515D4FFA01A081B1814C91C2
:10017000432B4C938E5F9C4FFC01A081B1812C934B
:100180000895DB0160E070E081E02115310546074C
:10019000570709F0812D8170FD01E452FD4F9081D8
:1001A000A253BD4F2C91A22FBB272C91803019F464
:1001B000292B2C930895909529232C9308950000C2
:1001C0001F9320E030E041E061157105820793073D
:1001D00009F0412D4170403009F024C040EA5FE051
:1001E00003C0E170E030F1F0FA01D90103C01170F1
:1001F000103061F0E150F040A040B04011E0E11556
:10020000F105A207B30799F7112DF1CF61507040A6
:1002100080409040E1E0611571058207930709F77E
:10022000E12DDFCF1F9108951092C50087E68093DE
:10023000C40088E18093C10086E08093C2000895E5
:100240008091C00080728030D9F36093C600089519
:10025000CF92DF92EF92FF920F931F93DC018C916C
:10026000803081F000E010E06D01682F7727C80131
:100270007D010E942001D6011196F7018181803015
:100280006D0199F71F910F91FF90EF90DF90CF9044
:1002900008950000000000000000000000000000C1
:1002A00048656C6C6F2C20457370726573736F4D6D
:1002B000616368696E6521000000000000000000B5
:1002C0002A2A2A2A2A2A2A2A2424242424242B2BB0
:1002D0002B2B2B2B2B2B252525252525010204082F
:1002E00010204080010204081020030506090A0BB3
:1002F000B0004400440080008000B00020208080D6
:0E0300002080B4004800470088008A00B30047
:0400000300000010E9
:00000001FF
