:100000000C94350018950000189500001895000014
:10001000189500001895000018950000189500002C
:10002000189500001895000018950000189500001C
:10003000189500001895000018950000189500000C
:100040000C943400189500001895000018950000D5
:1000500018950000189500001895000018950000EC
:100060001895000018950000189508E00EBF0FEFD6
:080070000DBF0E945C00FFCFF0
:1000780080E090E090930301809302019093010146
:1000880080930001089580910001909101012091D1
:100098000201309103018F5F9F4F2F4F3F4F909385
:1000A8000101809300013093030120930201089518
:0A00B8000E943C000E944700FDCFAB
:040000030000007881
:00000001FF
