:0E00000008E00EBF0FEF0DBF0E942900FFCFDA
:10001000089580E090E09093030180930201909313
:1000200001018093000108958091000190910101E8
:1000300020910201309103018F5F9F4F2F4F3F4F5F
:1000400090930101809300013093030120930201FA
:1000500008950E9409000E941400FDCF1F93DB0148
:1000600060E070E091E0213031054607570709F460
:10007000912D9170FD01E25AFD4F8081FD01EC5CF4
:10008000FD4FE081FF27903029F49081982B9083D9
:100090001F910895982F909510811923108391E056
:1000A000223031054607570709F4912D91709030A1
:1000B00041F4AE5BBD4F9C91A92FBB279C91982B1F
:1000C0009C931F910895DB01FD01E25AFD4F808151
:1000D000A05BBD4F9C91A92FBB279C91982381E0E9
:1000E000903009F4812D682F772780E090E0089503
:1000F0006770606460937C0080917A00876C809365
:100100007A0080917A0080748030D9F7209178004D
:1001100080917900482F552780E090E0982F852F17
:10012000542F412D622F7727642B752B089540E0C3
:1001300050E0CA01FA0131E086309105E407F50785
:1001400009F0312D3170303059F4DC01A459BD4F24
:100150003C91361731F08F5F9F4FEF4FFF4FEBCF42
:100160000895DC01A258BD4F3C91880F991FAC0146
:100170004E585D4FFA01A081B1814C91432B4C93B5
:100180008C579D4FFC01A081B1812C930895DB0118
:1001900060E070E081E0211531054607570709F05E
:1001A000812D8170FD01E25AFD4F9081AE5BBD4F04
:1001B0002C91A22FBB272C91803019F4292B2C9342
:1001C0000895909529232C93089500001F9320E013
:1001D00030E041E0611571058207930709F0412D78
:1001E0004170403009F024C040EA5FE003C0E17094
:1001F000E030F1F0FA01D90103C01170103061F064
:10020000E150F040A040B04011E0E115F105A20737
:10021000B30799F7112DF1CF6150704080409040A5
:10022000E1E0611571058207930709F7E12DDFCF42
:100230001F9108952A2A2A2A2A2A2A2A2424242491
:1002400024242B2B2B2B2B2B2B2B25252525252530
:100250002929292929292929232323232323010281
:10026000040810204080010204081020030506093C
:100270000A0BB0004400440080008000B000202041
:1002800080802080B4004800470088008A00B300C6
:0400000300000010E9
:00000001FF
